{"abi":[{"type":"constructor","inputs":[{"name":"_storyNFT","type":"address","internalType":"address"}],"stateMutability":"nonpayable"},{"type":"fallback","stateMutability":"payable"},{"type":"receive","stateMutability":"payable"},{"type":"function","name":"MAX_STAKE","inputs":[],"outputs":[{"name":"","type":"uint256","internalType":"uint256"}],"stateMutability":"view"},{"type":"function","name":"MIN_STAKE","inputs":[],"outputs":[{"name":"","type":"uint256","internalType":"uint256"}],"stateMutability":"view"},{"type":"function","name":"VOTING_DURATION","inputs":[],"outputs":[{"name":"","type":"uint256","internalType":"uint256"}],"stateMutability":"view"},{"type":"function","name":"deleteReport","inputs":[{"name":"storyId","type":"uint256","internalType":"uint256"},{"name":"reportIndex","type":"uint256","internalType":"uint256"}],"outputs":[],"stateMutability":"nonpayable"},{"type":"function","name":"developer","inputs":[],"outputs":[{"name":"","type":"address","internalType":"address"}],"stateMutability":"view"},{"type":"function","name":"finalizeAllReports","inputs":[{"name":"storyId","type":"uint256","internalType":"uint256"}],"outputs":[],"stateMutability":"nonpayable"},{"type":"function","name":"finalizeReport","inputs":[{"name":"storyId","type":"uint256","internalType":"uint256"},{"name":"reportIndex","type":"uint256","internalType":"uint256"}],"outputs":[],"stateMutability":"nonpayable"},{"type":"function","name":"getReportSummary","inputs":[{"name":"storyId","type":"uint256","internalType":"uint256"},{"name":"reportIndex","type":"uint256","internalType":"uint256"}],"outputs":[{"name":"reporter","type":"address","internalType":"address"},{"name":"stake","type":"uint256","internalType":"uint256"},{"name":"proofHash","type":"string","internalType":"string"},{"name":"yesVotes","type":"uint256","internalType":"uint256"},{"name":"noVotes","type":"uint256","internalType":"uint256"},{"name":"deadline","type":"uint256","internalType":"uint256"},{"name":"resolved","type":"bool","internalType":"bool"}],"stateMutability":"view"},{"type":"function","name":"getVoteCount","inputs":[{"name":"storyId","type":"uint256","internalType":"uint256"},{"name":"reportIndex","type":"uint256","internalType":"uint256"}],"outputs":[{"name":"yesVotes","type":"uint256","internalType":"uint256"},{"name":"noVotes","type":"uint256","internalType":"uint256"}],"stateMutability":"view"},{"type":"function","name":"reportStory","inputs":[{"name":"storyId","type":"uint256","internalType":"uint256"},{"name":"proofHash","type":"string","internalType":"string"}],"outputs":[{"name":"","type":"uint256","internalType":"uint256"}],"stateMutability":"payable"},{"type":"function","name":"resolveReport","inputs":[{"name":"storyId","type":"uint256","internalType":"uint256"},{"name":"reportIndex","type":"uint256","internalType":"uint256"}],"outputs":[],"stateMutability":"nonpayable"},{"type":"function","name":"storyNFT","inputs":[],"outputs":[{"name":"","type":"address","internalType":"contract StoryNFT"}],"stateMutability":"view"},{"type":"function","name":"storyReports","inputs":[{"name":"","type":"uint256","internalType":"uint256"}],"outputs":[{"name":"reportCount","type":"uint256","internalType":"uint256"}],"stateMutability":"view"},{"type":"function","name":"vote","inputs":[{"name":"storyId","type":"uint256","internalType":"uint256"},{"name":"reportIndex","type":"uint256","internalType":"uint256"},{"name":"support","type":"bool","internalType":"bool"}],"outputs":[],"stateMutability":"nonpayable"},{"type":"event","name":"ReportFinalized","inputs":[{"name":"storyId","type":"uint256","indexed":true,"internalType":"uint256"},{"name":"reportIndex","type":"uint256","indexed":true,"internalType":"uint256"},{"name":"plagiarismConfirmed","type":"bool","indexed":false,"internalType":"bool"}],"anonymous":false},{"type":"event","name":"ReportResolved","inputs":[{"name":"storyId","type":"uint256","indexed":true,"internalType":"uint256"},{"name":"reportIndex","type":"uint256","indexed":true,"internalType":"uint256"},{"name":"plagiarismConfirmed","type":"bool","indexed":false,"internalType":"bool"}],"anonymous":false},{"type":"event","name":"StoryDeleted","inputs":[{"name":"storyId","type":"uint256","indexed":true,"internalType":"uint256"}],"anonymous":false},{"type":"event","name":"StoryReported","inputs":[{"name":"storyId","type":"uint256","indexed":true,"internalType":"uint256"},{"name":"reportIndex","type":"uint256","indexed":true,"internalType":"uint256"},{"name":"reporter","type":"address","indexed":true,"internalType":"address"},{"name":"stake","type":"uint256","indexed":false,"internalType":"uint256"},{"name":"proofHash","type":"string","indexed":false,"internalType":"string"}],"anonymous":false},{"type":"event","name":"Voted","inputs":[{"name":"storyId","type":"uint256","indexed":true,"internalType":"uint256"},{"name":"reportIndex","type":"uint256","indexed":true,"internalType":"uint256"},{"name":"voter","type":"address","indexed":true,"internalType":"address"},{"name":"support","type":"bool","indexed":false,"internalType":"bool"}],"anonymous":false},{"type":"error","name":"AlreadyReported","inputs":[]},{"type":"error","name":"AlreadyResolved","inputs":[]},{"type":"error","name":"AlreadyVoted","inputs":[]},{"type":"error","name":"InvalidStory","inputs":[]},{"type":"error","name":"NoVotes","inputs":[]},{"type":"error","name":"StakeOutOfRange","inputs":[]},{"type":"error","name":"VotingNotActive","inputs":[]},{"type":"error","name":"VotingStillOngoing","inputs":[]}],"bytecode":{"object":"0x608060405234801561000f575f5ffd5b506040516122e83803806122e883398181016040528101906100319190610114565b805f5f6101000a81548173ffffffffffffffffffffffffffffffffffffffff021916908373ffffffffffffffffffffffffffffffffffffffff1602179055503360015f6101000a81548173ffffffffffffffffffffffffffffffffffffffff021916908373ffffffffffffffffffffffffffffffffffffffff1602179055505061013f565b5f5ffd5b5f73ffffffffffffffffffffffffffffffffffffffff82169050919050565b5f6100e3826100ba565b9050919050565b6100f3816100d9565b81146100fd575f5ffd5b50565b5f8151905061010e816100ea565b92915050565b5f60208284031215610129576101286100b6565b5b5f61013684828501610100565b91505092915050565b61219c8061014c5f395ff3fe6080604052600436106100e0575f3560e01c80638bdc23181161007e578063c98517c511610058578063c98517c5146102ad578063ca4b208b146102d7578063cb1c2b5c14610301578063de2e19a01461032b576100e1565b80638bdc23181461022b578063a438d2081461025b578063b98e874814610285576100e1565b8063531bbd83116100ba578063531bbd83146101755780636a18ff7a146101b157806374ed7b7d146101d95780637ea6e5bb14610203576100e1565b8063077bca4e146100e3578063247219421461010b57806333e00a2414610133576100e1565b5b005b3480156100ee575f5ffd5b50610109600480360381019061010491906116c4565b610368565b005b348015610116575f5ffd5b50610131600480360381019061012c91906116c4565b610508565b005b34801561013e575f5ffd5b50610159600480360381019061015491906116c4565b6105e8565b60405161016c97969594939291906117da565b60405180910390f35b348015610180575f5ffd5b5061019b6004803603810190610196919061184e565b610707565b6040516101a89190611879565b60405180910390f35b3480156101bc575f5ffd5b506101d760048036038101906101d291906118bc565b610721565b005b3480156101e4575f5ffd5b506101ed61093b565b6040516101fa9190611967565b60405180910390f35b34801561020e575f5ffd5b50610229600480360381019061022491906116c4565b61095f565b005b610245600480360381019061024091906119e1565b610df4565b6040516102529190611879565b60405180910390f35b348015610266575f5ffd5b5061026f61111a565b60405161027c9190611879565b60405180910390f35b348015610290575f5ffd5b506102ab60048036038101906102a6919061184e565b611121565b005b3480156102b8575f5ffd5b506102c16115b7565b6040516102ce9190611879565b60405180910390f35b3480156102e2575f5ffd5b506102eb6115c3565b6040516102f89190611a3e565b60405180910390f35b34801561030c575f5ffd5b506103156115e8565b6040516103229190611879565b60405180910390f35b348015610336575f5ffd5b50610351600480360381019061034c91906116c4565b6115f3565b60405161035f929190611a57565b60405180910390f35b5f60025f8481526020019081526020015f205f015490505f81116103c1576040517f08c379a00000000000000000000000000000000000000000000000000000000081526004016103b890611ac8565b60405180910390fd5b808210610403576040517f08c379a00000000000000000000000000000000000000000000000000000000081526004016103fa90611b30565b60405180910390fd5b5f60025f8581526020019081526020015f206001015f8481526020019081526020015f209050806006015f9054906101000a900460ff16610479576040517f08c379a000000000000000000000000000000000000000000000000000000000815260040161047090611b98565b60405180910390fd5b60025f8581526020019081526020015f206001015f8481526020019081526020015f205f5f82015f6101000a81549073ffffffffffffffffffffffffffffffffffffffff0219169055600182015f9055600282015f6104d89190611631565b600382015f9055600482015f9055600582015f9055600682015f6101000a81549060ff0219169055505050505050565b5f60025f8481526020019081526020015f206001015f8381526020019081526020015f209050806006015f9054906101000a900460ff161561057f576040517f08c379a000000000000000000000000000000000000000000000000000000000815260040161057690611c00565b60405180910390fd5b5f816004015482600301541190506001826006015f6101000a81548160ff02191690831515021790555082847ff1de01dc321dca29f99dcd3d219d8ab1460ee739e8df8c3d07412a65eba16508836040516105da9190611c1e565b60405180910390a350505050565b5f5f60605f5f5f5f5f60025f8b81526020019081526020015f206001015f8a81526020019081526020015f209050805f015f9054906101000a900473ffffffffffffffffffffffffffffffffffffffff16816001015482600201836003015484600401548560050154866006015f9054906101000a900460ff1684805461066e90611c64565b80601f016020809104026020016040519081016040528092919081815260200182805461069a90611c64565b80156106e55780601f106106bc576101008083540402835291602001916106e5565b820191905f5260205f20905b8154815290600101906020018083116106c857829003601f168201915b5050505050945097509750975097509750975097505092959891949750929550565b6002602052805f5260405f205f91509050805f0154905081565b5f60025f8581526020019081526020015f206001015f8481526020019081526020015f2090508060050154421115610785576040517f9b8cc47500000000000000000000000000000000000000000000000000000000815260040160405180910390fd5b806007015f3373ffffffffffffffffffffffffffffffffffffffff1673ffffffffffffffffffffffffffffffffffffffff1681526020019081526020015f205f9054906101000a900460ff1615610808576040517f7c9a1cf900000000000000000000000000000000000000000000000000000000815260040160405180910390fd5b806006015f9054906101000a900460ff1615610850576040517f6d5703c200000000000000000000000000000000000000000000000000000000815260040160405180910390fd5b6001816007015f3373ffffffffffffffffffffffffffffffffffffffff1673ffffffffffffffffffffffffffffffffffffffff1681526020019081526020015f205f6101000a81548160ff02191690831515021790555081156108cb57806003015f8154809291906108c190611cc1565b91905055506108e5565b806004015f8154809291906108df90611cc1565b91905055505b3373ffffffffffffffffffffffffffffffffffffffff1683857f46bbf92d95e2261f204899a3f9e286bfa35000a850157ae8e1311dd0f461d4888560405161092d9190611c1e565b60405180910390a450505050565b5f5f9054906101000a900473ffffffffffffffffffffffffffffffffffffffff1681565b5f60025f8481526020019081526020015f206001015f8381526020019081526020015f20905080600501544210156109c3576040517ffa6fef6500000000000000000000000000000000000000000000000000000000815260040160405180910390fd5b806006015f9054906101000a900460ff1615610a0b576040517f6d5703c200000000000000000000000000000000000000000000000000000000815260040160405180910390fd5b5f81600401548260030154610a209190611d08565b03610a57576040517f198e163000000000000000000000000000000000000000000000000000000000815260040160405180910390fd5b6001816006015f6101000a81548160ff0219169083151502179055505f816004015482600301541190508015610c3f575f5f9054906101000a900473ffffffffffffffffffffffffffffffffffffffff1673ffffffffffffffffffffffffffffffffffffffff16638a9a8b6a856040518263ffffffff1660e01b8152600401610ae09190611879565b5f604051808303815f87803b158015610af7575f5ffd5b505af1158015610b09573d5f5f3e3d5ffd5b50505050837f241e827102a26f4da16a406d84cdc0d0aa3984dcb713b55d4dc65c68012e442360405160405180910390a25f606460288460010154610b4e9190611d3b565b610b589190611da9565b90505f818460010154610b6b9190611dd9565b905060015f9054906101000a900473ffffffffffffffffffffffffffffffffffffffff1673ffffffffffffffffffffffffffffffffffffffff166108fc8390811502906040515f60405180830381858888f19350505050158015610bd1573d5f5f3e3d5ffd5b50835f015f9054906101000a900473ffffffffffffffffffffffffffffffffffffffff1673ffffffffffffffffffffffffffffffffffffffff166108fc8290811502906040515f60405180830381858888f19350505050158015610c37573d5f5f3e3d5ffd5b505050610db5565b5f606460288460010154610c539190611d3b565b610c5d9190611da9565b90505f818460010154610c709190611dd9565b905060015f9054906101000a900473ffffffffffffffffffffffffffffffffffffffff1673ffffffffffffffffffffffffffffffffffffffff166108fc8390811502906040515f60405180830381858888f19350505050158015610cd6573d5f5f3e3d5ffd5b505f5f9054906101000a900473ffffffffffffffffffffffffffffffffffffffff1673ffffffffffffffffffffffffffffffffffffffff16636352211e876040518263ffffffff1660e01b8152600401610d309190611879565b602060405180830381865afa158015610d4b573d5f5f3e3d5ffd5b505050506040513d601f19601f82011682018060405250810190610d6f9190611e36565b73ffffffffffffffffffffffffffffffffffffffff166108fc8290811502906040515f60405180830381858888f19350505050158015610db1573d5f5f3e3d5ffd5b5050505b82847f9cc8a4bf133445f98b958759841e8c82010cf736c3d8ffe5556aa2c66a562aee83604051610de69190611c1e565b60405180910390a350505050565b5f5f73ffffffffffffffffffffffffffffffffffffffff165f5f9054906101000a900473ffffffffffffffffffffffffffffffffffffffff1673ffffffffffffffffffffffffffffffffffffffff16636352211e866040518263ffffffff1660e01b8152600401610e659190611879565b602060405180830381865afa158015610e80573d5f5f3e3d5ffd5b505050506040513d601f19601f82011682018060405250810190610ea49190611e36565b73ffffffffffffffffffffffffffffffffffffffff1603610ef1576040517ff283c51900000000000000000000000000000000000000000000000000000000815260040160405180910390fd5b66038d7ea4c68000341080610f0d57506706f05b59d3b2000034115b15610f44576040517f7388e85000000000000000000000000000000000000000000000000000000000815260040160405180910390fd5b5f60025f8681526020019081526020015f2090505f5f90505b815f015481101561100e573373ffffffffffffffffffffffffffffffffffffffff16826001015f8381526020019081526020015f205f015f9054906101000a900473ffffffffffffffffffffffffffffffffffffffff1673ffffffffffffffffffffffffffffffffffffffff1603611001576040517f770c15e300000000000000000000000000000000000000000000000000000000815260040160405180910390fd5b8080600101915050610f5d565b505f815f015490505f826001015f8381526020019081526020015f20905033815f015f6101000a81548173ffffffffffffffffffffffffffffffffffffffff021916908373ffffffffffffffffffffffffffffffffffffffff160217905550348160010181905550858582600201918261108992919061202f565b5062015180426110999190611d08565b8160050181905550825f015f8154809291906110b490611cc1565b91905055503373ffffffffffffffffffffffffffffffffffffffff1682887f550e4e80d2ce26e6e40dcde968f5ea2f60b8b402dfb04bda162e96422d880b19348a8a60405161110593929190612136565b60405180910390a48193505050509392505050565b6201518081565b5f60025f8381526020019081526020015f2090505f5f90505f825f015490505f5f90505f5f90505b8281101561139b575f856001015f8381526020019081526020015f209050806006015f9054906101000a900460ff16806111865750806005015442105b15611191575061138e565b5f816004015482600301541190506001826006015f6101000a81548160ff02191690831515021790555080156111dc578160010154866111d19190611d08565b955060019350611352565b5f6064602884600101546111f09190611d3b565b6111fa9190611da9565b90505f81846001015461120d9190611dd9565b905060015f9054906101000a900473ffffffffffffffffffffffffffffffffffffffff1673ffffffffffffffffffffffffffffffffffffffff166108fc8390811502906040515f60405180830381858888f19350505050158015611273573d5f5f3e3d5ffd5b505f5f9054906101000a900473ffffffffffffffffffffffffffffffffffffffff1673ffffffffffffffffffffffffffffffffffffffff16636352211e8b6040518263ffffffff1660e01b81526004016112cd9190611879565b602060405180830381865afa1580156112e8573d5f5f3e3d5ffd5b505050506040513d601f19601f8201168201806040525081019061130c9190611e36565b73ffffffffffffffffffffffffffffffffffffffff166108fc8290811502906040515f60405180830381858888f1935050505015801561134e573d5f5f3e3d5ffd5b5050505b82887f9cc8a4bf133445f98b958759841e8c82010cf736c3d8ffe5556aa2c66a562aee836040516113839190611c1e565b60405180910390a350505b8080600101915050611149565b5080156115b0575f5f9054906101000a900473ffffffffffffffffffffffffffffffffffffffff1673ffffffffffffffffffffffffffffffffffffffff16638a9a8b6a866040518263ffffffff1660e01b81526004016113fb9190611879565b5f604051808303815f87803b158015611412575f5ffd5b505af1158015611424573d5f5f3e3d5ffd5b50505050847f241e827102a26f4da16a406d84cdc0d0aa3984dcb713b55d4dc65c68012e442360405160405180910390a25f60646028856114659190611d3b565b61146f9190611da9565b90505f818561147e9190611dd9565b905060015f9054906101000a900473ffffffffffffffffffffffffffffffffffffffff1673ffffffffffffffffffffffffffffffffffffffff166108fc8390811502906040515f60405180830381858888f193505050501580156114e4573d5f5f3e3d5ffd5b505f5f90505b848110156115ac575f876001015f8381526020019081526020015f20905080600401548160030154111561159e575f8784836001015461152a9190611d3b565b6115349190611da9565b9050815f015f9054906101000a900473ffffffffffffffffffffffffffffffffffffffff1673ffffffffffffffffffffffffffffffffffffffff166108fc8290811502906040515f60405180830381858888f1935050505015801561159b573d5f5f3e3d5ffd5b50505b5080806001019150506114ea565b5050505b5050505050565b6706f05b59d3b2000081565b60015f9054906101000a900473ffffffffffffffffffffffffffffffffffffffff1681565b66038d7ea4c6800081565b5f5f5f60025f8681526020019081526020015f206001015f8581526020019081526020015f2090508060030154816004015492509250509250929050565b50805461163d90611c64565b5f825580601f1061164e575061166b565b601f0160209004905f5260205f209081019061166a919061166e565b5b50565b5b80821115611685575f815f90555060010161166f565b5090565b5f5ffd5b5f5ffd5b5f819050919050565b6116a381611691565b81146116ad575f5ffd5b50565b5f813590506116be8161169a565b92915050565b5f5f604083850312156116da576116d9611689565b5b5f6116e7858286016116b0565b92505060206116f8858286016116b0565b9150509250929050565b5f73ffffffffffffffffffffffffffffffffffffffff82169050919050565b5f61172b82611702565b9050919050565b61173b81611721565b82525050565b61174a81611691565b82525050565b5f81519050919050565b5f82825260208201905092915050565b8281835e5f83830152505050565b5f601f19601f8301169050919050565b5f61179282611750565b61179c818561175a565b93506117ac81856020860161176a565b6117b581611778565b840191505092915050565b5f8115159050919050565b6117d4816117c0565b82525050565b5f60e0820190506117ed5f83018a611732565b6117fa6020830189611741565b818103604083015261180c8188611788565b905061181b6060830187611741565b6118286080830186611741565b61183560a0830185611741565b61184260c08301846117cb565b98975050505050505050565b5f6020828403121561186357611862611689565b5b5f611870848285016116b0565b91505092915050565b5f60208201905061188c5f830184611741565b92915050565b61189b816117c0565b81146118a5575f5ffd5b50565b5f813590506118b681611892565b92915050565b5f5f5f606084860312156118d3576118d2611689565b5b5f6118e0868287016116b0565b93505060206118f1868287016116b0565b9250506040611902868287016118a8565b9150509250925092565b5f819050919050565b5f61192f61192a61192584611702565b61190c565b611702565b9050919050565b5f61194082611915565b9050919050565b5f61195182611936565b9050919050565b61196181611947565b82525050565b5f60208201905061197a5f830184611958565b92915050565b5f5ffd5b5f5ffd5b5f5ffd5b5f5f83601f8401126119a1576119a0611980565b5b8235905067ffffffffffffffff8111156119be576119bd611984565b5b6020830191508360018202830111156119da576119d9611988565b5b9250929050565b5f5f5f604084860312156119f8576119f7611689565b5b5f611a05868287016116b0565b935050602084013567ffffffffffffffff811115611a2657611a2561168d565b5b611a328682870161198c565b92509250509250925092565b5f602082019050611a515f830184611732565b92915050565b5f604082019050611a6a5f830185611741565b611a776020830184611741565b9392505050565b7f4e6f207265706f72747320666f756e64000000000000000000000000000000005f82015250565b5f611ab260108361175a565b9150611abd82611a7e565b602082019050919050565b5f6020820190508181035f830152611adf81611aa6565b9050919050565b7f496e76616c6964207265706f727420696e6465780000000000000000000000005f82015250565b5f611b1a60148361175a565b9150611b2582611ae6565b602082019050919050565b5f6020820190508181035f830152611b4781611b0e565b9050919050565b7f43616e6e6f742064656c65746520756e7265736f6c766564207265706f7274005f82015250565b5f611b82601f8361175a565b9150611b8d82611b4e565b602082019050919050565b5f6020820190508181035f830152611baf81611b76565b9050919050565b7f416c7265616479207265736f6c766564000000000000000000000000000000005f82015250565b5f611bea60108361175a565b9150611bf582611bb6565b602082019050919050565b5f6020820190508181035f830152611c1781611bde565b9050919050565b5f602082019050611c315f8301846117cb565b92915050565b7f4e487b71000000000000000000000000000000000000000000000000000000005f52602260045260245ffd5b5f6002820490506001821680611c7b57607f821691505b602082108103611c8e57611c8d611c37565b5b50919050565b7f4e487b71000000000000000000000000000000000000000000000000000000005f52601160045260245ffd5b5f611ccb82611691565b91507fffffffffffffffffffffffffffffffffffffffffffffffffffffffffffffffff8203611cfd57611cfc611c94565b5b600182019050919050565b5f611d1282611691565b9150611d1d83611691565b9250828201905080821115611d3557611d34611c94565b5b92915050565b5f611d4582611691565b9150611d5083611691565b9250828202611d5e81611691565b91508282048414831517611d7557611d74611c94565b5b5092915050565b7f4e487b71000000000000000000000000000000000000000000000000000000005f52601260045260245ffd5b5f611db382611691565b9150611dbe83611691565b925082611dce57611dcd611d7c565b5b828204905092915050565b5f611de382611691565b9150611dee83611691565b9250828203905081811115611e0657611e05611c94565b5b92915050565b611e1581611721565b8114611e1f575f5ffd5b50565b5f81519050611e3081611e0c565b92915050565b5f60208284031215611e4b57611e4a611689565b5b5f611e5884828501611e22565b91505092915050565b5f82905092915050565b7f4e487b71000000000000000000000000000000000000000000000000000000005f52604160045260245ffd5b5f819050815f5260205f209050919050565b5f6020601f8301049050919050565b5f82821b905092915050565b5f60088302611ef47fffffffffffffffffffffffffffffffffffffffffffffffffffffffffffffffff82611eb9565b611efe8683611eb9565b95508019841693508086168417925050509392505050565b5f611f30611f2b611f2684611691565b61190c565b611691565b9050919050565b5f819050919050565b611f4983611f16565b611f5d611f5582611f37565b848454611ec5565b825550505050565b5f5f905090565b611f74611f65565b611f7f818484611f40565b505050565b5b81811015611fa257611f975f82611f6c565b600181019050611f85565b5050565b601f821115611fe757611fb881611e98565b611fc184611eaa565b81016020851015611fd0578190505b611fe4611fdc85611eaa565b830182611f84565b50505b505050565b5f82821c905092915050565b5f6120075f1984600802611fec565b1980831691505092915050565b5f61201f8383611ff8565b9150826002028217905092915050565b6120398383611e61565b67ffffffffffffffff81111561205257612051611e6b565b5b61205c8254611c64565b612067828285611fa6565b5f601f831160018114612094575f8415612082578287013590505b61208c8582612014565b8655506120f3565b601f1984166120a286611e98565b5f5b828110156120c9578489013582556001820191506020850194506020810190506120a4565b868310156120e657848901356120e2601f891682611ff8565b8355505b6001600288020188555050505b50505050505050565b828183375f83830152505050565b5f612115838561175a565b93506121228385846120fc565b61212b83611778565b840190509392505050565b5f6040820190506121495f830186611741565b818103602083015261215c81848661210a565b905094935050505056fea2646970667358221220e9b531108db2b492584d0c63c09b97e1063dce0fd9d4594c566165390c9829c764736f6c634300081d0033","linkReferences":{}},"methodIdentifiers":{"MAX_STAKE()":"c98517c5","MIN_STAKE()":"cb1c2b5c","VOTING_DURATION()":"a438d208","deleteReport(uint256,uint256)":"077bca4e","developer()":"ca4b208b","finalizeAllReports(uint256)":"b98e8748","finalizeReport(uint256,uint256)":"7ea6e5bb","getReportSummary(uint256,uint256)":"33e00a24","getVoteCount(uint256,uint256)":"de2e19a0","reportStory(uint256,string)":"8bdc2318","resolveReport(uint256,uint256)":"24721942","storyNFT()":"74ed7b7d","storyReports(uint256)":"531bbd83","vote(uint256,uint256,bool)":"6a18ff7a"},"id":40}