{"abi":[{"type":"constructor","inputs":[{"name":"_name","type":"string","internalType":"string"},{"name":"_symbol","type":"string","internalType":"string"},{"name":"_royaltyReceiver","type":"address","internalType":"address"},{"name":"_royaltyFeeNumerator","type":"uint96","internalType":"uint96"}],"stateMutability":"nonpayable"},{"type":"function","name":"approve","inputs":[{"name":"to","type":"address","internalType":"address"},{"name":"tokenId","type":"uint256","internalType":"uint256"}],"outputs":[],"stateMutability":"nonpayable"},{"type":"function","name":"balanceOf","inputs":[{"name":"owner","type":"address","internalType":"address"}],"outputs":[{"name":"","type":"uint256","internalType":"uint256"}],"stateMutability":"view"},{"type":"function","name":"burnStory","inputs":[{"name":"tokenId","type":"uint256","internalType":"uint256"}],"outputs":[],"stateMutability":"nonpayable"},{"type":"function","name":"deleteDefaultRoyalty","inputs":[],"outputs":[],"stateMutability":"nonpayable"},{"type":"function","name":"flagStory","inputs":[{"name":"tokenId","type":"uint256","internalType":"uint256"},{"name":"reporter","type":"address","internalType":"address"}],"outputs":[],"stateMutability":"nonpayable"},{"type":"function","name":"getApproved","inputs":[{"name":"tokenId","type":"uint256","internalType":"uint256"}],"outputs":[{"name":"","type":"address","internalType":"address"}],"stateMutability":"view"},{"type":"function","name":"getAuthor","inputs":[{"name":"tokenId","type":"uint256","internalType":"uint256"}],"outputs":[{"name":"","type":"address","internalType":"address"}],"stateMutability":"view"},{"type":"function","name":"getAvailHash","inputs":[{"name":"tokenId","type":"uint256","internalType":"uint256"}],"outputs":[{"name":"","type":"bytes32","internalType":"bytes32"}],"stateMutability":"view"},{"type":"function","name":"getCreatedAt","inputs":[{"name":"tokenId","type":"uint256","internalType":"uint256"}],"outputs":[{"name":"","type":"uint256","internalType":"uint256"}],"stateMutability":"view"},{"type":"function","name":"getMetadataURI","inputs":[{"name":"tokenId","type":"uint256","internalType":"uint256"}],"outputs":[{"name":"","type":"string","internalType":"string"}],"stateMutability":"view"},{"type":"function","name":"getReadStatus","inputs":[{"name":"tokenId","type":"uint256","internalType":"uint256"},{"name":"reader","type":"address","internalType":"address"}],"outputs":[{"name":"","type":"uint8","internalType":"enum StoryNFT.ReadStatus"}],"stateMutability":"view"},{"type":"function","name":"isApprovedForAll","inputs":[{"name":"owner","type":"address","internalType":"address"},{"name":"operator","type":"address","internalType":"address"}],"outputs":[{"name":"","type":"bool","internalType":"bool"}],"stateMutability":"view"},{"type":"function","name":"isFlagged","inputs":[{"name":"tokenId","type":"uint256","internalType":"uint256"}],"outputs":[{"name":"","type":"bool","internalType":"bool"}],"stateMutability":"view"},{"type":"function","name":"mintStory","inputs":[{"name":"metadataURI","type":"string","internalType":"string"},{"name":"availHash","type":"bytes32","internalType":"bytes32"}],"outputs":[{"name":"","type":"uint256","internalType":"uint256"}],"stateMutability":"nonpayable"},{"type":"function","name":"name","inputs":[],"outputs":[{"name":"","type":"string","internalType":"string"}],"stateMutability":"view"},{"type":"function","name":"owner","inputs":[],"outputs":[{"name":"","type":"address","internalType":"address"}],"stateMutability":"view"},{"type":"function","name":"ownerOf","inputs":[{"name":"tokenId","type":"uint256","internalType":"uint256"}],"outputs":[{"name":"","type":"address","internalType":"address"}],"stateMutability":"view"},{"type":"function","name":"plagiarismCourt","inputs":[],"outputs":[{"name":"","type":"address","internalType":"address"}],"stateMutability":"view"},{"type":"function","name":"recordXP","inputs":[{"name":"tokenId","type":"uint256","internalType":"uint256"},{"name":"xp","type":"uint256","internalType":"uint256"}],"outputs":[],"stateMutability":"nonpayable"},{"type":"function","name":"renounceOwnership","inputs":[],"outputs":[],"stateMutability":"nonpayable"},{"type":"function","name":"reputationContract","inputs":[],"outputs":[{"name":"","type":"address","internalType":"address"}],"stateMutability":"view"},{"type":"function","name":"resolveStory","inputs":[{"name":"tokenId","type":"uint256","internalType":"uint256"},{"name":"isGuilty","type":"bool","internalType":"bool"}],"outputs":[],"stateMutability":"nonpayable"},{"type":"function","name":"royaltyInfo","inputs":[{"name":"tokenId","type":"uint256","internalType":"uint256"},{"name":"salePrice","type":"uint256","internalType":"uint256"}],"outputs":[{"name":"receiver","type":"address","internalType":"address"},{"name":"amount","type":"uint256","internalType":"uint256"}],"stateMutability":"view"},{"type":"function","name":"safeTransferFrom","inputs":[{"name":"from","type":"address","internalType":"address"},{"name":"to","type":"address","internalType":"address"},{"name":"tokenId","type":"uint256","internalType":"uint256"}],"outputs":[],"stateMutability":"nonpayable"},{"type":"function","name":"safeTransferFrom","inputs":[{"name":"from","type":"address","internalType":"address"},{"name":"to","type":"address","internalType":"address"},{"name":"tokenId","type":"uint256","internalType":"uint256"},{"name":"data","type":"bytes","internalType":"bytes"}],"outputs":[],"stateMutability":"nonpayable"},{"type":"function","name":"setApprovalForAll","inputs":[{"name":"operator","type":"address","internalType":"address"},{"name":"approved","type":"bool","internalType":"bool"}],"outputs":[],"stateMutability":"nonpayable"},{"type":"function","name":"setDefaultRoyalty","inputs":[{"name":"receiver","type":"address","internalType":"address"},{"name":"feeNumerator","type":"uint96","internalType":"uint96"}],"outputs":[],"stateMutability":"nonpayable"},{"type":"function","name":"setPlagiarismCourt","inputs":[{"name":"_court","type":"address","internalType":"address"}],"outputs":[],"stateMutability":"nonpayable"},{"type":"function","name":"setReadStatus","inputs":[{"name":"tokenId","type":"uint256","internalType":"uint256"},{"name":"status","type":"uint8","internalType":"enum StoryNFT.ReadStatus"}],"outputs":[],"stateMutability":"nonpayable"},{"type":"function","name":"setReputationContract","inputs":[{"name":"_reputationContract","type":"address","internalType":"address"}],"outputs":[],"stateMutability":"nonpayable"},{"type":"function","name":"supportsInterface","inputs":[{"name":"interfaceId","type":"bytes4","internalType":"bytes4"}],"outputs":[{"name":"","type":"bool","internalType":"bool"}],"stateMutability":"view"},{"type":"function","name":"symbol","inputs":[],"outputs":[{"name":"","type":"string","internalType":"string"}],"stateMutability":"view"},{"type":"function","name":"tokenURI","inputs":[{"name":"tokenId","type":"uint256","internalType":"uint256"}],"outputs":[{"name":"","type":"string","internalType":"string"}],"stateMutability":"view"},{"type":"function","name":"transferFrom","inputs":[{"name":"from","type":"address","internalType":"address"},{"name":"to","type":"address","internalType":"address"},{"name":"tokenId","type":"uint256","internalType":"uint256"}],"outputs":[],"stateMutability":"nonpayable"},{"type":"function","name":"transferOwnership","inputs":[{"name":"newOwner","type":"address","internalType":"address"}],"outputs":[],"stateMutability":"nonpayable"},{"type":"function","name":"updateStoryURI","inputs":[{"name":"tokenId","type":"uint256","internalType":"uint256"},{"name":"newURI","type":"string","internalType":"string"}],"outputs":[],"stateMutability":"nonpayable"},{"type":"event","name":"Approval","inputs":[{"name":"owner","type":"address","indexed":true,"internalType":"address"},{"name":"approved","type":"address","indexed":true,"internalType":"address"},{"name":"tokenId","type":"uint256","indexed":true,"internalType":"uint256"}],"anonymous":false},{"type":"event","name":"ApprovalForAll","inputs":[{"name":"owner","type":"address","indexed":true,"internalType":"address"},{"name":"operator","type":"address","indexed":true,"internalType":"address"},{"name":"approved","type":"bool","indexed":false,"internalType":"bool"}],"anonymous":false},{"type":"event","name":"BatchMetadataUpdate","inputs":[{"name":"_fromTokenId","type":"uint256","indexed":false,"internalType":"uint256"},{"name":"_toTokenId","type":"uint256","indexed":false,"internalType":"uint256"}],"anonymous":false},{"type":"event","name":"MetadataUpdate","inputs":[{"name":"_tokenId","type":"uint256","indexed":false,"internalType":"uint256"}],"anonymous":false},{"type":"event","name":"OwnershipTransferred","inputs":[{"name":"previousOwner","type":"address","indexed":true,"internalType":"address"},{"name":"newOwner","type":"address","indexed":true,"internalType":"address"}],"anonymous":false},{"type":"event","name":"StoryBurned","inputs":[{"name":"storyId","type":"uint256","indexed":true,"internalType":"uint256"},{"name":"burner","type":"address","indexed":true,"internalType":"address"}],"anonymous":false},{"type":"event","name":"StoryFlagged","inputs":[{"name":"storyId","type":"uint256","indexed":true,"internalType":"uint256"},{"name":"reporter","type":"address","indexed":true,"internalType":"address"}],"anonymous":false},{"type":"event","name":"StoryMinted","inputs":[{"name":"storyId","type":"uint256","indexed":true,"internalType":"uint256"},{"name":"author","type":"address","indexed":true,"internalType":"address"},{"name":"metadataURI","type":"string","indexed":false,"internalType":"string"},{"name":"availHash","type":"bytes32","indexed":false,"internalType":"bytes32"}],"anonymous":false},{"type":"event","name":"StoryReadStatusUpdated","inputs":[{"name":"storyId","type":"uint256","indexed":true,"internalType":"uint256"},{"name":"reader","type":"address","indexed":true,"internalType":"address"},{"name":"status","type":"uint8","indexed":false,"internalType":"enum StoryNFT.ReadStatus"}],"anonymous":false},{"type":"event","name":"StoryResolved","inputs":[{"name":"storyId","type":"uint256","indexed":true,"internalType":"uint256"},{"name":"isGuilty","type":"bool","indexed":false,"internalType":"bool"}],"anonymous":false},{"type":"event","name":"StoryURIUpdated","inputs":[{"name":"storyId","type":"uint256","indexed":true,"internalType":"uint256"},{"name":"oldURI","type":"string","indexed":false,"internalType":"string"},{"name":"newURI","type":"string","indexed":false,"internalType":"string"}],"anonymous":false},{"type":"event","name":"StoryXPRecorded","inputs":[{"name":"storyId","type":"uint256","indexed":true,"internalType":"uint256"},{"name":"author","type":"address","indexed":true,"internalType":"address"},{"name":"xp","type":"uint256","indexed":false,"internalType":"uint256"}],"anonymous":false},{"type":"event","name":"Transfer","inputs":[{"name":"from","type":"address","indexed":true,"internalType":"address"},{"name":"to","type":"address","indexed":true,"internalType":"address"},{"name":"tokenId","type":"uint256","indexed":true,"internalType":"uint256"}],"anonymous":false},{"type":"error","name":"ERC2981InvalidDefaultRoyalty","inputs":[{"name":"numerator","type":"uint256","internalType":"uint256"},{"name":"denominator","type":"uint256","internalType":"uint256"}]},{"type":"error","name":"ERC2981InvalidDefaultRoyaltyReceiver","inputs":[{"name":"receiver","type":"address","internalType":"address"}]},{"type":"error","name":"ERC2981InvalidTokenRoyalty","inputs":[{"name":"tokenId","type":"uint256","internalType":"uint256"},{"name":"numerator","type":"uint256","internalType":"uint256"},{"name":"denominator","type":"uint256","internalType":"uint256"}]},{"type":"error","name":"ERC2981InvalidTokenRoyaltyReceiver","inputs":[{"name":"tokenId","type":"uint256","internalType":"uint256"},{"name":"receiver","type":"address","internalType":"address"}]},{"type":"error","name":"ERC721IncorrectOwner","inputs":[{"name":"sender","type":"address","internalType":"address"},{"name":"tokenId","type":"uint256","internalType":"uint256"},{"name":"owner","type":"address","internalType":"address"}]},{"type":"error","name":"ERC721InsufficientApproval","inputs":[{"name":"operator","type":"address","internalType":"address"},{"name":"tokenId","type":"uint256","internalType":"uint256"}]},{"type":"error","name":"ERC721InvalidApprover","inputs":[{"name":"approver","type":"address","internalType":"address"}]},{"type":"error","name":"ERC721InvalidOperator","inputs":[{"name":"operator","type":"address","internalType":"address"}]},{"type":"error","name":"ERC721InvalidOwner","inputs":[{"name":"owner","type":"address","internalType":"address"}]},{"type":"error","name":"ERC721InvalidReceiver","inputs":[{"name":"receiver","type":"address","internalType":"address"}]},{"type":"error","name":"ERC721InvalidSender","inputs":[{"name":"sender","type":"address","internalType":"address"}]},{"type":"error","name":"ERC721NonexistentToken","inputs":[{"name":"tokenId","type":"uint256","internalType":"uint256"}]},{"type":"error","name":"NotAuthor","inputs":[]},{"type":"error","name":"OnlyPlagiarismCourt","inputs":[]},{"type":"error","name":"OnlyReputationContract","inputs":[]},{"type":"error","name":"OwnableInvalidOwner","inputs":[{"name":"owner","type":"address","internalType":"address"}]},{"type":"error","name":"OwnableUnauthorizedAccount","inputs":[{"name":"account","type":"address","internalType":"address"}]},{"type":"error","name":"TokenDoesNotExist","inputs":[]}],"bytecode":{"object":"0x608060405234801561000f575f5ffd5b50604051614d55380380614d558339818101604052810190610031919061057f565b338484815f9081610042919061082b565b508060019081610052919061082b565b5050505f73ffffffffffffffffffffffffffffffffffffffff168173ffffffffffffffffffffffffffffffffffffffff16036100c5575f6040517f1e4fbdf70000000000000000000000000000000000000000000000000000000081526004016100bc9190610909565b60405180910390fd5b6100d48161012a60201b60201c565b506001600a819055505f73ffffffffffffffffffffffffffffffffffffffff168273ffffffffffffffffffffffffffffffffffffffff16146101215761012082826101ed60201b60201c565b5b50505050610988565b5f60095f9054906101000a900473ffffffffffffffffffffffffffffffffffffffff1690508160095f6101000a81548173ffffffffffffffffffffffffffffffffffffffff021916908373ffffffffffffffffffffffffffffffffffffffff1602179055508173ffffffffffffffffffffffffffffffffffffffff168173ffffffffffffffffffffffffffffffffffffffff167f8be0079c531659141344cd1fd0a4f28419497f9722a3daafe3b4186f6b6457e060405160405180910390a35050565b5f6101fc61038e60201b60201c565b6bffffffffffffffffffffffff16905080826bffffffffffffffffffffffff1611156102615781816040517f6f483d09000000000000000000000000000000000000000000000000000000008152600401610258929190610961565b60405180910390fd5b5f73ffffffffffffffffffffffffffffffffffffffff168373ffffffffffffffffffffffffffffffffffffffff16036102d1575f6040517fb6d9900a0000000000000000000000000000000000000000000000000000000081526004016102c89190610909565b60405180910390fd5b60405180604001604052808473ffffffffffffffffffffffffffffffffffffffff168152602001836bffffffffffffffffffffffff1681525060075f820151815f015f6101000a81548173ffffffffffffffffffffffffffffffffffffffff021916908373ffffffffffffffffffffffffffffffffffffffff1602179055506020820151815f0160146101000a8154816bffffffffffffffffffffffff02191690836bffffffffffffffffffffffff160217905550905050505050565b5f612710905090565b5f604051905090565b5f5ffd5b5f5ffd5b5f5ffd5b5f5ffd5b5f601f19601f8301169050919050565b7f4e487b71000000000000000000000000000000000000000000000000000000005f52604160045260245ffd5b6103f6826103b0565b810181811067ffffffffffffffff82111715610415576104146103c0565b5b80604052505050565b5f610427610397565b905061043382826103ed565b919050565b5f67ffffffffffffffff821115610452576104516103c0565b5b61045b826103b0565b9050602081019050919050565b8281835e5f83830152505050565b5f61048861048384610438565b61041e565b9050828152602081018484840111156104a4576104a36103ac565b5b6104af848285610468565b509392505050565b5f82601f8301126104cb576104ca6103a8565b5b81516104db848260208601610476565b91505092915050565b5f73ffffffffffffffffffffffffffffffffffffffff82169050919050565b5f61050d826104e4565b9050919050565b61051d81610503565b8114610527575f5ffd5b50565b5f8151905061053881610514565b92915050565b5f6bffffffffffffffffffffffff82169050919050565b61055e8161053e565b8114610568575f5ffd5b50565b5f8151905061057981610555565b92915050565b5f5f5f5f60808587031215610597576105966103a0565b5b5f85015167ffffffffffffffff8111156105b4576105b36103a4565b5b6105c0878288016104b7565b945050602085015167ffffffffffffffff8111156105e1576105e06103a4565b5b6105ed878288016104b7565b93505060406105fe8782880161052a565b925050606061060f8782880161056b565b91505092959194509250565b5f81519050919050565b7f4e487b71000000000000000000000000000000000000000000000000000000005f52602260045260245ffd5b5f600282049050600182168061066957607f821691505b60208210810361067c5761067b610625565b5b50919050565b5f819050815f5260205f209050919050565b5f6020601f8301049050919050565b5f82821b905092915050565b5f600883026106de7fffffffffffffffffffffffffffffffffffffffffffffffffffffffffffffffff826106a3565b6106e886836106a3565b95508019841693508086168417925050509392505050565b5f819050919050565b5f819050919050565b5f61072c61072761072284610700565b610709565b610700565b9050919050565b5f819050919050565b61074583610712565b61075961075182610733565b8484546106af565b825550505050565b5f5f905090565b610770610761565b61077b81848461073c565b505050565b5b8181101561079e576107935f82610768565b600181019050610781565b5050565b601f8211156107e3576107b481610682565b6107bd84610694565b810160208510156107cc578190505b6107e06107d885610694565b830182610780565b50505b505050565b5f82821c905092915050565b5f6108035f19846008026107e8565b1980831691505092915050565b5f61081b83836107f4565b9150826002028217905092915050565b6108348261061b565b67ffffffffffffffff81111561084d5761084c6103c0565b5b6108578254610652565b6108628282856107a2565b5f60209050601f831160018114610893575f8415610881578287015190505b61088b8582610810565b8655506108f2565b601f1984166108a186610682565b5f5b828110156108c8578489015182556001820191506020850194506020810190506108a3565b868310156108e557848901516108e1601f8916826107f4565b8355505b6001600288020188555050505b505050505050565b61090381610503565b82525050565b5f60208201905061091c5f8301846108fa565b92915050565b5f61093c6109376109328461053e565b610709565b610700565b9050919050565b61094c81610922565b82525050565b61095b81610700565b82525050565b5f6040820190506109745f830185610943565b6109816020830184610952565b9392505050565b6143c0806109955f395ff3fe608060405234801561000f575f5ffd5b506004361061021a575f3560e01c80639584660f11610123578063b88d4fde116100ab578063e383a2b11161007a578063e383a2b114610659578063e985e9c514610689578063ecf1ccc6146106b9578063f2fde38b146106d5578063fd330ed9146106f15761021a565b8063b88d4fde146105c1578063bde644fb146105dd578063c87b56dd1461060d578063dded68cd1461063d5761021a565b8063a22cb465116100f2578063a22cb4651461051d578063a7c419e114610539578063aa1b103f14610569578063aac9d0bf14610573578063b70f402d146105915761021a565b80639584660f1461048357806395d89b411461049f5780639676d809146104bd5780639e2b8488146104ed5761021a565b806342842e0e116101a6578063715018a611610175578063715018a6146103f157806376cf6e39146103fb57806387bc14251461042b5780638a9a8b6a146104495780638da5cb5b146104655761021a565b806342842e0e14610359578063485dda53146103755780636352211e1461039157806370a08231146103c15761021a565b8063095ea7b3116101ed578063095ea7b3146102b857806323b872dd146102d45780632a55205a146102f05780632c3eebb814610321578063315840571461033d5761021a565b806301ffc9a71461021e57806304634d8d1461024e57806306fdde031461026a578063081812fc14610288575b5f5ffd5b610238600480360381019061023391906132bd565b61070d565b6040516102459190613302565b60405180910390f35b610268600480360381019061026391906133b6565b61071e565b005b610272610734565b60405161027f9190613464565b60405180910390f35b6102a2600480360381019061029d91906134b7565b6107c3565b6040516102af91906134f1565b60405180910390f35b6102d260048036038101906102cd919061350a565b6107de565b005b6102ee60048036038101906102e99190613548565b6107f4565b005b61030a60048036038101906103059190613598565b6108f3565b6040516103189291906135e5565b60405180910390f35b61033b6004803603810190610336919061366d565b610a15565b005b610357600480360381019061035291906136ed565b610c40565b005b610373600480360381019061036e9190613548565b610d75565b005b61038f600480360381019061038a919061372b565b610d94565b005b6103ab60048036038101906103a691906134b7565b610efd565b6040516103b891906134f1565b60405180910390f35b6103db60048036038101906103d69190613769565b610f0e565b6040516103e89190613794565b60405180910390f35b6103f9610fc4565b005b610415600480360381019061041091906134b7565b610fd7565b60405161042291906137c5565b60405180910390f35b610433611063565b60405161044091906134f1565b60405180910390f35b610463600480360381019061045e91906134b7565b611088565b005b61046d61125e565b60405161047a91906134f1565b60405180910390f35b61049d60048036038101906104989190613769565b611286565b005b6104a76112d1565b6040516104b49190613464565b60405180910390f35b6104d760048036038101906104d291906134b7565b611361565b6040516104e49190613794565b60405180910390f35b610507600480360381019061050291906134b7565b6113ed565b60405161051491906134f1565b60405180910390f35b61053760048036038101906105329190613808565b611498565b005b610553600480360381019061054e919061372b565b6114ae565b60405161056091906138b9565b60405180910390f35b61057161157f565b005b61057b611591565b60405161058891906134f1565b60405180910390f35b6105ab60048036038101906105a691906134b7565b6115b6565b6040516105b89190613302565b60405180910390f35b6105db60048036038101906105d691906139fa565b61164e565b005b6105f760048036038101906105f291906134b7565b611673565b6040516106049190613464565b60405180910390f35b610627600480360381019061062291906134b7565b611785565b6040516106349190613464565b60405180910390f35b61065760048036038101906106529190613a7a565b611797565b005b610673600480360381019061066e9190613b80565b6118f3565b6040516106809190613794565b60405180910390f35b6106a3600480360381019061069e9190613bda565b611aa3565b6040516106b09190613302565b60405180910390f35b6106d360048036038101906106ce9190613769565b611b31565b005b6106ef60048036038101906106ea9190613769565b611b7c565b005b61070b60048036038101906107069190613598565b611c00565b005b5f61071782611d80565b9050919050565b610726611df9565b6107308282611e80565b5050565b60605f805461074290613c45565b80601f016020809104026020016040519081016040528092919081815260200182805461076e90613c45565b80156107b95780601f10610790576101008083540402835291602001916107b9565b820191905f5260205f20905b81548152906001019060200180831161079c57829003601f168201915b5050505050905090565b5f6107cd8261201b565b506107d7826120a1565b9050919050565b6107f082826107eb6120da565b6120e1565b5050565b5f73ffffffffffffffffffffffffffffffffffffffff168273ffffffffffffffffffffffffffffffffffffffff1603610864575f6040517f64a0ae9200000000000000000000000000000000000000000000000000000000815260040161085b91906134f1565b60405180910390fd5b5f61087783836108726120da565b6120f3565b90508373ffffffffffffffffffffffffffffffffffffffff168173ffffffffffffffffffffffffffffffffffffffff16146108ed578382826040517f64283d7b0000000000000000000000000000000000000000000000000000000081526004016108e493929190613c75565b60405180910390fd5b50505050565b5f5f5f60085f8681526020019081526020015f2090505f815f015f9054906101000a900473ffffffffffffffffffffffffffffffffffffffff1690505f825f0160149054906101000a90046bffffffffffffffffffffffff1690505f73ffffffffffffffffffffffffffffffffffffffff168273ffffffffffffffffffffffffffffffffffffffff16036109c75760075f015f9054906101000a900473ffffffffffffffffffffffffffffffffffffffff16915060075f0160149054906101000a90046bffffffffffffffffffffffff1690505b5f6109d06122fe565b6bffffffffffffffffffffffff16826bffffffffffffffffffffffff16886109f89190613cd7565b610a029190613d45565b9050828195509550505050509250929050565b825f73ffffffffffffffffffffffffffffffffffffffff16610a3682610efd565b73ffffffffffffffffffffffffffffffffffffffff1603610a83576040517fceea21b600000000000000000000000000000000000000000000000000000000815260040160405180910390fd5b3373ffffffffffffffffffffffffffffffffffffffff16610aa385610efd565b73ffffffffffffffffffffffffffffffffffffffff1614610af0576040517f16aac54f00000000000000000000000000000000000000000000000000000000815260040160405180910390fd5b5f600b5f8681526020019081526020015f205f018054610b0f90613c45565b80601f0160208091040260200160405190810160405280929190818152602001828054610b3b90613c45565b8015610b865780601f10610b5d57610100808354040283529160200191610b86565b820191905f5260205f20905b815481529060010190602001808311610b6957829003601f168201915b505050505090508383600b5f8881526020019081526020015f205f019182610baf929190613f1f565b50610bfd8585858080601f0160208091040260200160405190810160405280939291908181526020018383808284375f81840152601f19601f82011690508083019250505050505050612307565b847f884aa87bb7e5d8aa27d722e9b08d150a0472f56f922c604ee667a763ffc7dc83828686604051610c3193929190614018565b60405180910390a25050505050565b815f73ffffffffffffffffffffffffffffffffffffffff16610c6182610efd565b73ffffffffffffffffffffffffffffffffffffffff1603610cae576040517fceea21b600000000000000000000000000000000000000000000000000000000815260040160405180910390fd5b81600c5f8581526020019081526020015f205f3373ffffffffffffffffffffffffffffffffffffffff1673ffffffffffffffffffffffffffffffffffffffff1681526020019081526020015f205f6101000a81548160ff02191690836002811115610d1c57610d1b613846565b5b02179055503373ffffffffffffffffffffffffffffffffffffffff16837fda00cb1e3151d3fe931fe921b5006ea2373f95894d8c0ef25221a2272ba1f4a384604051610d6891906138b9565b60405180910390a3505050565b610d8f83838360405180602001604052805f81525061164e565b505050565b600d5f9054906101000a900473ffffffffffffffffffffffffffffffffffffffff1673ffffffffffffffffffffffffffffffffffffffff163373ffffffffffffffffffffffffffffffffffffffff1614610e1a576040517f1cc0a9f500000000000000000000000000000000000000000000000000000000815260040160405180910390fd5b815f73ffffffffffffffffffffffffffffffffffffffff16610e3b82610efd565b73ffffffffffffffffffffffffffffffffffffffff1603610e88576040517fceea21b600000000000000000000000000000000000000000000000000000000815260040160405180910390fd5b6001600b5f8581526020019081526020015f206004015f6101000a81548160ff0219169083151502179055508173ffffffffffffffffffffffffffffffffffffffff16837fb62946a83e4229486ba01b448f47866fab3bdac89c9ebd494374d984e0fc852b60405160405180910390a3505050565b5f610f078261201b565b9050919050565b5f5f73ffffffffffffffffffffffffffffffffffffffff168273ffffffffffffffffffffffffffffffffffffffff1603610f7f575f6040517f89c62b64000000000000000000000000000000000000000000000000000000008152600401610f7691906134f1565b60405180910390fd5b60035f8373ffffffffffffffffffffffffffffffffffffffff1673ffffffffffffffffffffffffffffffffffffffff1681526020019081526020015f20549050919050565b610fcc611df9565b610fd55f612361565b565b5f815f73ffffffffffffffffffffffffffffffffffffffff16610ff982610efd565b73ffffffffffffffffffffffffffffffffffffffff1603611046576040517fceea21b600000000000000000000000000000000000000000000000000000000815260040160405180910390fd5b600b5f8481526020019081526020015f2060010154915050919050565b600e5f9054906101000a900473ffffffffffffffffffffffffffffffffffffffff1681565b805f73ffffffffffffffffffffffffffffffffffffffff166110a982610efd565b73ffffffffffffffffffffffffffffffffffffffff16036110f6576040517fceea21b600000000000000000000000000000000000000000000000000000000815260040160405180910390fd5b3373ffffffffffffffffffffffffffffffffffffffff1661111683610efd565b73ffffffffffffffffffffffffffffffffffffffff161415801561116d57503373ffffffffffffffffffffffffffffffffffffffff1661115461125e565b73ffffffffffffffffffffffffffffffffffffffff1614155b156111a4576040517f16aac54f00000000000000000000000000000000000000000000000000000000815260040160405180910390fd5b600b5f8381526020019081526020015f205f5f82015f6111c491906131ff565b600182015f9055600282015f6101000a81549073ffffffffffffffffffffffffffffffffffffffff0219169055600382015f9055600482015f6101000a81549060ff0219169055505061121682612424565b3373ffffffffffffffffffffffffffffffffffffffff16827f96d2915b16a735d11e03bf91243655bedbfb7bcd6291503c66145f469045725460405160405180910390a35050565b5f60095f9054906101000a900473ffffffffffffffffffffffffffffffffffffffff16905090565b61128e611df9565b80600e5f6101000a81548173ffffffffffffffffffffffffffffffffffffffff021916908373ffffffffffffffffffffffffffffffffffffffff16021790555050565b6060600180546112e090613c45565b80601f016020809104026020016040519081016040528092919081815260200182805461130c90613c45565b80156113575780601f1061132e57610100808354040283529160200191611357565b820191905f5260205f20905b81548152906001019060200180831161133a57829003601f168201915b5050505050905090565b5f815f73ffffffffffffffffffffffffffffffffffffffff1661138382610efd565b73ffffffffffffffffffffffffffffffffffffffff16036113d0576040517fceea21b600000000000000000000000000000000000000000000000000000000815260040160405180910390fd5b600b5f8481526020019081526020015f2060030154915050919050565b5f815f73ffffffffffffffffffffffffffffffffffffffff1661140f82610efd565b73ffffffffffffffffffffffffffffffffffffffff160361145c576040517fceea21b600000000000000000000000000000000000000000000000000000000815260040160405180910390fd5b600b5f8481526020019081526020015f206002015f9054906101000a900473ffffffffffffffffffffffffffffffffffffffff16915050919050565b6114aa6114a36120da565b83836124a6565b5050565b5f825f73ffffffffffffffffffffffffffffffffffffffff166114d082610efd565b73ffffffffffffffffffffffffffffffffffffffff160361151d576040517fceea21b600000000000000000000000000000000000000000000000000000000815260040160405180910390fd5b600c5f8581526020019081526020015f205f8473ffffffffffffffffffffffffffffffffffffffff1673ffffffffffffffffffffffffffffffffffffffff1681526020019081526020015f205f9054906101000a900460ff1691505092915050565b611587611df9565b61158f61260f565b565b600d5f9054906101000a900473ffffffffffffffffffffffffffffffffffffffff1681565b5f815f73ffffffffffffffffffffffffffffffffffffffff166115d882610efd565b73ffffffffffffffffffffffffffffffffffffffff1603611625576040517fceea21b600000000000000000000000000000000000000000000000000000000815260040160405180910390fd5b600b5f8481526020019081526020015f206004015f9054906101000a900460ff16915050919050565b6116598484846107f4565b61166d6116646120da565b85858585612659565b50505050565b6060815f73ffffffffffffffffffffffffffffffffffffffff1661169682610efd565b73ffffffffffffffffffffffffffffffffffffffff16036116e3576040517fceea21b600000000000000000000000000000000000000000000000000000000815260040160405180910390fd5b600b5f8481526020019081526020015f205f01805461170190613c45565b80601f016020809104026020016040519081016040528092919081815260200182805461172d90613c45565b80156117785780601f1061174f57610100808354040283529160200191611778565b820191905f5260205f20905b81548152906001019060200180831161175b57829003601f168201915b5050505050915050919050565b606061179082612805565b9050919050565b600d5f9054906101000a900473ffffffffffffffffffffffffffffffffffffffff1673ffffffffffffffffffffffffffffffffffffffff163373ffffffffffffffffffffffffffffffffffffffff161461181d576040517f1cc0a9f500000000000000000000000000000000000000000000000000000000815260040160405180910390fd5b815f73ffffffffffffffffffffffffffffffffffffffff1661183e82610efd565b73ffffffffffffffffffffffffffffffffffffffff160361188b576040517fceea21b600000000000000000000000000000000000000000000000000000000815260040160405180910390fd5b5f600b5f8581526020019081526020015f206004015f6101000a81548160ff021916908315150217905550827f84c99466aa56876cd948c937a751cd152b8c1480b8191622d6dcf05b634390f0836040516118e69190613302565b60405180910390a2505050565b5f5f835111611937576040517f08c379a000000000000000000000000000000000000000000000000000000000815260040161192e90614099565b60405180910390fd5b5f600a549050600a5f81548092919061194f906140b7565b919050555061195e3382612910565b6040518060a001604052808581526020018481526020013373ffffffffffffffffffffffffffffffffffffffff1681526020014281526020015f1515815250600b5f8381526020019081526020015f205f820151815f0190816119c191906140fe565b50602082015181600101556040820151816002015f6101000a81548173ffffffffffffffffffffffffffffffffffffffff021916908373ffffffffffffffffffffffffffffffffffffffff160217905550606082015181600301556080820151816004015f6101000a81548160ff021916908315150217905550905050611a488185612307565b3373ffffffffffffffffffffffffffffffffffffffff16817f095b58c08b5ac3cf372c8ba8b6b54a5d165a9c97d3d9c42ee77902d0ebcaad1b8686604051611a919291906141cd565b60405180910390a38091505092915050565b5f60055f8473ffffffffffffffffffffffffffffffffffffffff1673ffffffffffffffffffffffffffffffffffffffff1681526020019081526020015f205f8373ffffffffffffffffffffffffffffffffffffffff1673ffffffffffffffffffffffffffffffffffffffff1681526020019081526020015f205f9054906101000a900460ff16905092915050565b611b39611df9565b80600d5f6101000a81548173ffffffffffffffffffffffffffffffffffffffff021916908373ffffffffffffffffffffffffffffffffffffffff16021790555050565b611b84611df9565b5f73ffffffffffffffffffffffffffffffffffffffff168173ffffffffffffffffffffffffffffffffffffffff1603611bf4575f6040517f1e4fbdf7000000000000000000000000000000000000000000000000000000008152600401611beb91906134f1565b60405180910390fd5b611bfd81612361565b50565b600e5f9054906101000a900473ffffffffffffffffffffffffffffffffffffffff1673ffffffffffffffffffffffffffffffffffffffff163373ffffffffffffffffffffffffffffffffffffffff1614611c86576040517f34fd92d200000000000000000000000000000000000000000000000000000000815260040160405180910390fd5b815f73ffffffffffffffffffffffffffffffffffffffff16611ca782610efd565b73ffffffffffffffffffffffffffffffffffffffff1603611cf4576040517fceea21b600000000000000000000000000000000000000000000000000000000815260040160405180910390fd5b5f600b5f8581526020019081526020015f206002015f9054906101000a900473ffffffffffffffffffffffffffffffffffffffff1690508073ffffffffffffffffffffffffffffffffffffffff16847fc8acd0ebb78cb27ce6a3af65d0b550b8d3040e544f6ffd37ebb83ca705b0133f85604051611d729190613794565b60405180910390a350505050565b5f7f2a55205a000000000000000000000000000000000000000000000000000000007bffffffffffffffffffffffffffffffffffffffffffffffffffffffff1916827bffffffffffffffffffffffffffffffffffffffffffffffffffffffff19161480611df25750611df18261292d565b5b9050919050565b611e016120da565b73ffffffffffffffffffffffffffffffffffffffff16611e1f61125e565b73ffffffffffffffffffffffffffffffffffffffff1614611e7e57611e426120da565b6040517f118cdaa7000000000000000000000000000000000000000000000000000000008152600401611e7591906134f1565b60405180910390fd5b565b5f611e896122fe565b6bffffffffffffffffffffffff16905080826bffffffffffffffffffffffff161115611eee5781816040517f6f483d09000000000000000000000000000000000000000000000000000000008152600401611ee592919061422b565b60405180910390fd5b5f73ffffffffffffffffffffffffffffffffffffffff168373ffffffffffffffffffffffffffffffffffffffff1603611f5e575f6040517fb6d9900a000000000000000000000000000000000000000000000000000000008152600401611f5591906134f1565b60405180910390fd5b60405180604001604052808473ffffffffffffffffffffffffffffffffffffffff168152602001836bffffffffffffffffffffffff1681525060075f820151815f015f6101000a81548173ffffffffffffffffffffffffffffffffffffffff021916908373ffffffffffffffffffffffffffffffffffffffff1602179055506020820151815f0160146101000a8154816bffffffffffffffffffffffff02191690836bffffffffffffffffffffffff160217905550905050505050565b5f5f6120268361298d565b90505f73ffffffffffffffffffffffffffffffffffffffff168173ffffffffffffffffffffffffffffffffffffffff160361209857826040517f7e27328900000000000000000000000000000000000000000000000000000000815260040161208f9190613794565b60405180910390fd5b80915050919050565b5f60045f8381526020019081526020015f205f9054906101000a900473ffffffffffffffffffffffffffffffffffffffff169050919050565b5f33905090565b6120ee83838360016129c6565b505050565b5f5f6120fe8461298d565b90505f73ffffffffffffffffffffffffffffffffffffffff168373ffffffffffffffffffffffffffffffffffffffff161461213f5761213e818486612b85565b5b5f73ffffffffffffffffffffffffffffffffffffffff168173ffffffffffffffffffffffffffffffffffffffff16146121ca5761217e5f855f5f6129c6565b600160035f8373ffffffffffffffffffffffffffffffffffffffff1673ffffffffffffffffffffffffffffffffffffffff1681526020019081526020015f205f82825403925050819055505b5f73ffffffffffffffffffffffffffffffffffffffff168573ffffffffffffffffffffffffffffffffffffffff161461224957600160035f8773ffffffffffffffffffffffffffffffffffffffff1673ffffffffffffffffffffffffffffffffffffffff1681526020019081526020015f205f82825401925050819055505b8460025f8681526020019081526020015f205f6101000a81548173ffffffffffffffffffffffffffffffffffffffff021916908373ffffffffffffffffffffffffffffffffffffffff160217905550838573ffffffffffffffffffffffffffffffffffffffff168273ffffffffffffffffffffffffffffffffffffffff167fddf252ad1be2c89b69c2b068fc378daa952ba7f163c4a11628f55a4df523b3ef60405160405180910390a4809150509392505050565b5f612710905090565b8060065f8481526020019081526020015f20908161232591906140fe565b507ff8e1a15aba9398e019f0b49df1a4fde98ee17ae345cb5f6b5e2c27f5033e8ce7826040516123559190613794565b60405180910390a15050565b5f60095f9054906101000a900473ffffffffffffffffffffffffffffffffffffffff1690508160095f6101000a81548173ffffffffffffffffffffffffffffffffffffffff021916908373ffffffffffffffffffffffffffffffffffffffff1602179055508173ffffffffffffffffffffffffffffffffffffffff168173ffffffffffffffffffffffffffffffffffffffff167f8be0079c531659141344cd1fd0a4f28419497f9722a3daafe3b4186f6b6457e060405160405180910390a35050565b5f6124305f835f6120f3565b90505f73ffffffffffffffffffffffffffffffffffffffff168173ffffffffffffffffffffffffffffffffffffffff16036124a257816040517f7e2732890000000000000000000000000000000000000000000000000000000081526004016124999190613794565b60405180910390fd5b5050565b5f73ffffffffffffffffffffffffffffffffffffffff168273ffffffffffffffffffffffffffffffffffffffff160361251657816040517f5b08ba1800000000000000000000000000000000000000000000000000000000815260040161250d91906134f1565b60405180910390fd5b8060055f8573ffffffffffffffffffffffffffffffffffffffff1673ffffffffffffffffffffffffffffffffffffffff1681526020019081526020015f205f8473ffffffffffffffffffffffffffffffffffffffff1673ffffffffffffffffffffffffffffffffffffffff1681526020019081526020015f205f6101000a81548160ff0219169083151502179055508173ffffffffffffffffffffffffffffffffffffffff168373ffffffffffffffffffffffffffffffffffffffff167f17307eab39ab6107e8899845ad3d59bd9653f200f220920489ca2b5937696c31836040516126029190613302565b60405180910390a3505050565b60075f5f82015f6101000a81549073ffffffffffffffffffffffffffffffffffffffff02191690555f820160146101000a8154906bffffffffffffffffffffffff02191690555050565b5f8373ffffffffffffffffffffffffffffffffffffffff163b11156127fe578273ffffffffffffffffffffffffffffffffffffffff1663150b7a02868685856040518563ffffffff1660e01b81526004016126b794939291906142a4565b6020604051808303815f875af19250505080156126f257506040513d601f19601f820116820180604052508101906126ef9190614302565b60015b612773573d805f8114612720576040519150601f19603f3d011682016040523d82523d5f602084013e612725565b606091505b505f81510361276b57836040517f64a0ae9200000000000000000000000000000000000000000000000000000000815260040161276291906134f1565b60405180910390fd5b805160208201fd5b63150b7a0260e01b7bffffffffffffffffffffffffffffffffffffffffffffffffffffffff1916817bffffffffffffffffffffffffffffffffffffffffffffffffffffffff1916146127fc57836040517f64a0ae920000000000000000000000000000000000000000000000000000000081526004016127f391906134f1565b60405180910390fd5b505b5050505050565b60606128108261201b565b505f60065f8481526020019081526020015f20805461282e90613c45565b80601f016020809104026020016040519081016040528092919081815260200182805461285a90613c45565b80156128a55780601f1061287c576101008083540402835291602001916128a5565b820191905f5260205f20905b81548152906001019060200180831161288857829003601f168201915b505050505090505f6128b5612c48565b90505f8151036128c957819250505061290b565b5f825111156128fd5780826040516020016128e5929190614367565b6040516020818303038152906040529250505061290b565b61290684612c5e565b925050505b919050565b612929828260405180602001604052805f815250612cc4565b5050565b5f634906490660e01b7bffffffffffffffffffffffffffffffffffffffffffffffffffffffff1916827bffffffffffffffffffffffffffffffffffffffffffffffffffffffff19161480612986575061298582612ce7565b5b9050919050565b5f60025f8381526020019081526020015f205f9054906101000a900473ffffffffffffffffffffffffffffffffffffffff169050919050565b80806129fe57505f73ffffffffffffffffffffffffffffffffffffffff168273ffffffffffffffffffffffffffffffffffffffff1614155b15612b30575f612a0d8461201b565b90505f73ffffffffffffffffffffffffffffffffffffffff168373ffffffffffffffffffffffffffffffffffffffff1614158015612a7757508273ffffffffffffffffffffffffffffffffffffffff168173ffffffffffffffffffffffffffffffffffffffff1614155b8015612a8a5750612a888184611aa3565b155b15612acc57826040517fa9fbf51f000000000000000000000000000000000000000000000000000000008152600401612ac391906134f1565b60405180910390fd5b8115612b2e57838573ffffffffffffffffffffffffffffffffffffffff168273ffffffffffffffffffffffffffffffffffffffff167f8c5be1e5ebec7d5bd14f71427d1e84f3dd0314c0f7b2291e5b200ac8c7c3b92560405160405180910390a45b505b8360045f8581526020019081526020015f205f6101000a81548173ffffffffffffffffffffffffffffffffffffffff021916908373ffffffffffffffffffffffffffffffffffffffff16021790555050505050565b612b90838383612dc8565b612c43575f73ffffffffffffffffffffffffffffffffffffffff168373ffffffffffffffffffffffffffffffffffffffff1603612c0457806040517f7e273289000000000000000000000000000000000000000000000000000000008152600401612bfb9190613794565b60405180910390fd5b81816040517f177e802f000000000000000000000000000000000000000000000000000000008152600401612c3a9291906135e5565b60405180910390fd5b505050565b606060405180602001604052805f815250905090565b6060612c698261201b565b505f612c73612c48565b90505f815111612c915760405180602001604052805f815250612cbc565b80612c9b84612e88565b604051602001612cac929190614367565b6040516020818303038152906040525b915050919050565b612cce8383612f52565b612ce2612cd96120da565b5f858585612659565b505050565b5f7f80ac58cd000000000000000000000000000000000000000000000000000000007bffffffffffffffffffffffffffffffffffffffffffffffffffffffff1916827bffffffffffffffffffffffffffffffffffffffffffffffffffffffff19161480612db157507f5b5e139f000000000000000000000000000000000000000000000000000000007bffffffffffffffffffffffffffffffffffffffffffffffffffffffff1916827bffffffffffffffffffffffffffffffffffffffffffffffffffffffff1916145b80612dc15750612dc082613045565b5b9050919050565b5f5f73ffffffffffffffffffffffffffffffffffffffff168373ffffffffffffffffffffffffffffffffffffffff1614158015612e7f57508273ffffffffffffffffffffffffffffffffffffffff168473ffffffffffffffffffffffffffffffffffffffff161480612e405750612e3f8484611aa3565b5b80612e7e57508273ffffffffffffffffffffffffffffffffffffffff16612e66836120a1565b73ffffffffffffffffffffffffffffffffffffffff16145b5b90509392505050565b60605f6001612e96846130ae565b0190505f8167ffffffffffffffff811115612eb457612eb36138d6565b5b6040519080825280601f01601f191660200182016040528015612ee65781602001600182028036833780820191505090505b5090505f82602083010190505b600115612f47578080600190039150507f3031323334353637383961626364656600000000000000000000000000000000600a86061a8153600a8581612f3c57612f3b613d18565b5b0494505f8503612ef3575b819350505050919050565b5f73ffffffffffffffffffffffffffffffffffffffff168273ffffffffffffffffffffffffffffffffffffffff1603612fc2575f6040517f64a0ae92000000000000000000000000000000000000000000000000000000008152600401612fb991906134f1565b60405180910390fd5b5f612fce83835f6120f3565b90505f73ffffffffffffffffffffffffffffffffffffffff168173ffffffffffffffffffffffffffffffffffffffff1614613040575f6040517f73c6ac6e00000000000000000000000000000000000000000000000000000000815260040161303791906134f1565b60405180910390fd5b505050565b5f7f01ffc9a7000000000000000000000000000000000000000000000000000000007bffffffffffffffffffffffffffffffffffffffffffffffffffffffff1916827bffffffffffffffffffffffffffffffffffffffffffffffffffffffff1916149050919050565b5f5f5f90507a184f03e93ff9f4daa797ed6e38ed64bf6a1f010000000000000000831061310a577a184f03e93ff9f4daa797ed6e38ed64bf6a1f0100000000000000008381613100576130ff613d18565b5b0492506040810190505b6d04ee2d6d415b85acef81000000008310613147576d04ee2d6d415b85acef8100000000838161313d5761313c613d18565b5b0492506020810190505b662386f26fc10000831061317657662386f26fc10000838161316c5761316b613d18565b5b0492506010810190505b6305f5e100831061319f576305f5e100838161319557613194613d18565b5b0492506008810190505b61271083106131c45761271083816131ba576131b9613d18565b5b0492506004810190505b606483106131e757606483816131dd576131dc613d18565b5b0492506002810190505b600a83106131f6576001810190505b80915050919050565b50805461320b90613c45565b5f825580601f1061321c5750613239565b601f0160209004905f5260205f2090810190613238919061323c565b5b50565b5b80821115613253575f815f90555060010161323d565b5090565b5f604051905090565b5f5ffd5b5f5ffd5b5f7fffffffff0000000000000000000000000000000000000000000000000000000082169050919050565b61329c81613268565b81146132a6575f5ffd5b50565b5f813590506132b781613293565b92915050565b5f602082840312156132d2576132d1613260565b5b5f6132df848285016132a9565b91505092915050565b5f8115159050919050565b6132fc816132e8565b82525050565b5f6020820190506133155f8301846132f3565b92915050565b5f73ffffffffffffffffffffffffffffffffffffffff82169050919050565b5f6133448261331b565b9050919050565b6133548161333a565b811461335e575f5ffd5b50565b5f8135905061336f8161334b565b92915050565b5f6bffffffffffffffffffffffff82169050919050565b61339581613375565b811461339f575f5ffd5b50565b5f813590506133b08161338c565b92915050565b5f5f604083850312156133cc576133cb613260565b5b5f6133d985828601613361565b92505060206133ea858286016133a2565b9150509250929050565b5f81519050919050565b5f82825260208201905092915050565b8281835e5f83830152505050565b5f601f19601f8301169050919050565b5f613436826133f4565b61344081856133fe565b935061345081856020860161340e565b6134598161341c565b840191505092915050565b5f6020820190508181035f83015261347c818461342c565b905092915050565b5f819050919050565b61349681613484565b81146134a0575f5ffd5b50565b5f813590506134b18161348d565b92915050565b5f602082840312156134cc576134cb613260565b5b5f6134d9848285016134a3565b91505092915050565b6134eb8161333a565b82525050565b5f6020820190506135045f8301846134e2565b92915050565b5f5f604083850312156135205761351f613260565b5b5f61352d85828601613361565b925050602061353e858286016134a3565b9150509250929050565b5f5f5f6060848603121561355f5761355e613260565b5b5f61356c86828701613361565b935050602061357d86828701613361565b925050604061358e868287016134a3565b9150509250925092565b5f5f604083850312156135ae576135ad613260565b5b5f6135bb858286016134a3565b92505060206135cc858286016134a3565b9150509250929050565b6135df81613484565b82525050565b5f6040820190506135f85f8301856134e2565b61360560208301846135d6565b9392505050565b5f5ffd5b5f5ffd5b5f5ffd5b5f5f83601f84011261362d5761362c61360c565b5b8235905067ffffffffffffffff81111561364a57613649613610565b5b60208301915083600182028301111561366657613665613614565b5b9250929050565b5f5f5f6040848603121561368457613683613260565b5b5f613691868287016134a3565b935050602084013567ffffffffffffffff8111156136b2576136b1613264565b5b6136be86828701613618565b92509250509250925092565b600381106136d6575f5ffd5b50565b5f813590506136e7816136ca565b92915050565b5f5f6040838503121561370357613702613260565b5b5f613710858286016134a3565b9250506020613721858286016136d9565b9150509250929050565b5f5f6040838503121561374157613740613260565b5b5f61374e858286016134a3565b925050602061375f85828601613361565b9150509250929050565b5f6020828403121561377e5761377d613260565b5b5f61378b84828501613361565b91505092915050565b5f6020820190506137a75f8301846135d6565b92915050565b5f819050919050565b6137bf816137ad565b82525050565b5f6020820190506137d85f8301846137b6565b92915050565b6137e7816132e8565b81146137f1575f5ffd5b50565b5f81359050613802816137de565b92915050565b5f5f6040838503121561381e5761381d613260565b5b5f61382b85828601613361565b925050602061383c858286016137f4565b9150509250929050565b7f4e487b71000000000000000000000000000000000000000000000000000000005f52602160045260245ffd5b6003811061388457613883613846565b5b50565b5f81905061389482613873565b919050565b5f6138a382613887565b9050919050565b6138b381613899565b82525050565b5f6020820190506138cc5f8301846138aa565b92915050565b5f5ffd5b7f4e487b71000000000000000000000000000000000000000000000000000000005f52604160045260245ffd5b61390c8261341c565b810181811067ffffffffffffffff8211171561392b5761392a6138d6565b5b80604052505050565b5f61393d613257565b90506139498282613903565b919050565b5f67ffffffffffffffff821115613968576139676138d6565b5b6139718261341c565b9050602081019050919050565b828183375f83830152505050565b5f61399e6139998461394e565b613934565b9050828152602081018484840111156139ba576139b96138d2565b5b6139c584828561397e565b509392505050565b5f82601f8301126139e1576139e061360c565b5b81356139f184826020860161398c565b91505092915050565b5f5f5f5f60808587031215613a1257613a11613260565b5b5f613a1f87828801613361565b9450506020613a3087828801613361565b9350506040613a41878288016134a3565b925050606085013567ffffffffffffffff811115613a6257613a61613264565b5b613a6e878288016139cd565b91505092959194509250565b5f5f60408385031215613a9057613a8f613260565b5b5f613a9d858286016134a3565b9250506020613aae858286016137f4565b9150509250929050565b5f67ffffffffffffffff821115613ad257613ad16138d6565b5b613adb8261341c565b9050602081019050919050565b5f613afa613af584613ab8565b613934565b905082815260208101848484011115613b1657613b156138d2565b5b613b2184828561397e565b509392505050565b5f82601f830112613b3d57613b3c61360c565b5b8135613b4d848260208601613ae8565b91505092915050565b613b5f816137ad565b8114613b69575f5ffd5b50565b5f81359050613b7a81613b56565b92915050565b5f5f60408385031215613b9657613b95613260565b5b5f83013567ffffffffffffffff811115613bb357613bb2613264565b5b613bbf85828601613b29565b9250506020613bd085828601613b6c565b9150509250929050565b5f5f60408385031215613bf057613bef613260565b5b5f613bfd85828601613361565b9250506020613c0e85828601613361565b9150509250929050565b7f4e487b71000000000000000000000000000000000000000000000000000000005f52602260045260245ffd5b5f6002820490506001821680613c5c57607f821691505b602082108103613c6f57613c6e613c18565b5b50919050565b5f606082019050613c885f8301866134e2565b613c9560208301856135d6565b613ca260408301846134e2565b949350505050565b7f4e487b71000000000000000000000000000000000000000000000000000000005f52601160045260245ffd5b5f613ce182613484565b9150613cec83613484565b9250828202613cfa81613484565b91508282048414831517613d1157613d10613caa565b5b5092915050565b7f4e487b71000000000000000000000000000000000000000000000000000000005f52601260045260245ffd5b5f613d4f82613484565b9150613d5a83613484565b925082613d6a57613d69613d18565b5b828204905092915050565b5f82905092915050565b5f819050815f5260205f209050919050565b5f6020601f8301049050919050565b5f82821b905092915050565b5f60088302613ddb7fffffffffffffffffffffffffffffffffffffffffffffffffffffffffffffffff82613da0565b613de58683613da0565b95508019841693508086168417925050509392505050565b5f819050919050565b5f613e20613e1b613e1684613484565b613dfd565b613484565b9050919050565b5f819050919050565b613e3983613e06565b613e4d613e4582613e27565b848454613dac565b825550505050565b5f5f905090565b613e64613e55565b613e6f818484613e30565b505050565b5b81811015613e9257613e875f82613e5c565b600181019050613e75565b5050565b601f821115613ed757613ea881613d7f565b613eb184613d91565b81016020851015613ec0578190505b613ed4613ecc85613d91565b830182613e74565b50505b505050565b5f82821c905092915050565b5f613ef75f1984600802613edc565b1980831691505092915050565b5f613f0f8383613ee8565b9150826002028217905092915050565b613f298383613d75565b67ffffffffffffffff811115613f4257613f416138d6565b5b613f4c8254613c45565b613f57828285613e96565b5f601f831160018114613f84575f8415613f72578287013590505b613f7c8582613f04565b865550613fe3565b601f198416613f9286613d7f565b5f5b82811015613fb957848901358255600182019150602085019450602081019050613f94565b86831015613fd65784890135613fd2601f891682613ee8565b8355505b6001600288020188555050505b50505050505050565b5f613ff783856133fe565b935061400483858461397e565b61400d8361341c565b840190509392505050565b5f6040820190508181035f830152614030818661342c565b90508181036020830152614045818486613fec565b9050949350505050565b7f4d65746164617461205552492063616e6e6f7420626520656d707479000000005f82015250565b5f614083601c836133fe565b915061408e8261404f565b602082019050919050565b5f6020820190508181035f8301526140b081614077565b9050919050565b5f6140c182613484565b91507fffffffffffffffffffffffffffffffffffffffffffffffffffffffffffffffff82036140f3576140f2613caa565b5b600182019050919050565b614107826133f4565b67ffffffffffffffff8111156141205761411f6138d6565b5b61412a8254613c45565b614135828285613e96565b5f60209050601f831160018114614166575f8415614154578287015190505b61415e8582613f04565b8655506141c5565b601f19841661417486613d7f565b5f5b8281101561419b57848901518255600182019150602085019450602081019050614176565b868310156141b857848901516141b4601f891682613ee8565b8355505b6001600288020188555050505b505050505050565b5f6040820190508181035f8301526141e5818561342c565b90506141f460208301846137b6565b9392505050565b5f61421561421061420b84613375565b613dfd565b613484565b9050919050565b614225816141fb565b82525050565b5f60408201905061423e5f83018561421c565b61424b60208301846135d6565b9392505050565b5f81519050919050565b5f82825260208201905092915050565b5f61427682614252565b614280818561425c565b935061429081856020860161340e565b6142998161341c565b840191505092915050565b5f6080820190506142b75f8301876134e2565b6142c460208301866134e2565b6142d160408301856135d6565b81810360608301526142e3818461426c565b905095945050505050565b5f815190506142fc81613293565b92915050565b5f6020828403121561431757614316613260565b5b5f614324848285016142ee565b91505092915050565b5f81905092915050565b5f614341826133f4565b61434b818561432d565b935061435b81856020860161340e565b80840191505092915050565b5f6143728285614337565b915061437e8284614337565b9150819050939250505056fea26469706673582212203b19b268936af32bedce694088f09c41fb5642dee5c23d209fb02cdd460244ec64736f6c634300081d0033","linkReferences":{}},"methodIdentifiers":{"approve(address,uint256)":"095ea7b3","balanceOf(address)":"70a08231","burnStory(uint256)":"8a9a8b6a","deleteDefaultRoyalty()":"aa1b103f","flagStory(uint256,address)":"485dda53","getApproved(uint256)":"081812fc","getAuthor(uint256)":"9e2b8488","getAvailHash(uint256)":"76cf6e39","getCreatedAt(uint256)":"9676d809","getMetadataURI(uint256)":"bde644fb","getReadStatus(uint256,address)":"a7c419e1","isApprovedForAll(address,address)":"e985e9c5","isFlagged(uint256)":"b70f402d","mintStory(string,bytes32)":"e383a2b1","name()":"06fdde03","owner()":"8da5cb5b","ownerOf(uint256)":"6352211e","plagiarismCourt()":"aac9d0bf","recordXP(uint256,uint256)":"fd330ed9","renounceOwnership()":"715018a6","reputationContract()":"87bc1425","resolveStory(uint256,bool)":"dded68cd","royaltyInfo(uint256,uint256)":"2a55205a","safeTransferFrom(address,address,uint256)":"42842e0e","safeTransferFrom(address,address,uint256,bytes)":"b88d4fde","setApprovalForAll(address,bool)":"a22cb465","setDefaultRoyalty(address,uint96)":"04634d8d","setPlagiarismCourt(address)":"ecf1ccc6","setReadStatus(uint256,uint8)":"31584057","setReputationContract(address)":"9584660f","supportsInterface(bytes4)":"01ffc9a7","symbol()":"95d89b41","tokenURI(uint256)":"c87b56dd","transferFrom(address,address,uint256)":"23b872dd","transferOwnership(address)":"f2fde38b","updateStoryURI(uint256,string)":"2c3eebb8"},"id":41}