{"abi":[{"type":"constructor","inputs":[],"stateMutability":"nonpayable"},{"type":"function","name":"XP_PER_LEVEL","inputs":[],"outputs":[{"name":"","type":"uint256","internalType":"uint256"}],"stateMutability":"view"},{"type":"function","name":"addXP","inputs":[{"name":"user","type":"address","internalType":"address"},{"name":"amount","type":"uint256","internalType":"uint256"}],"outputs":[],"stateMutability":"nonpayable"},{"type":"function","name":"getLevel","inputs":[{"name":"user","type":"address","internalType":"address"}],"outputs":[{"name":"","type":"uint256","internalType":"uint256"}],"stateMutability":"view"},{"type":"function","name":"getReputation","inputs":[{"name":"user","type":"address","internalType":"address"}],"outputs":[{"name":"xp","type":"uint256","internalType":"uint256"},{"name":"level","type":"uint256","internalType":"uint256"}],"stateMutability":"view"},{"type":"function","name":"getXP","inputs":[{"name":"user","type":"address","internalType":"address"}],"outputs":[{"name":"","type":"uint256","internalType":"uint256"}],"stateMutability":"view"},{"type":"function","name":"owner","inputs":[],"outputs":[{"name":"","type":"address","internalType":"address"}],"stateMutability":"view"},{"type":"function","name":"plagiarismCourt","inputs":[],"outputs":[{"name":"","type":"address","internalType":"address"}],"stateMutability":"view"},{"type":"function","name":"reduceXP","inputs":[{"name":"user","type":"address","internalType":"address"},{"name":"amount","type":"uint256","internalType":"uint256"}],"outputs":[],"stateMutability":"nonpayable"},{"type":"function","name":"renounceOwnership","inputs":[],"outputs":[],"stateMutability":"nonpayable"},{"type":"function","name":"setPlagiarismCourtAddress","inputs":[{"name":"_addr","type":"address","internalType":"address"}],"outputs":[],"stateMutability":"nonpayable"},{"type":"function","name":"setStoryNFTAddress","inputs":[{"name":"_addr","type":"address","internalType":"address"}],"outputs":[],"stateMutability":"nonpayable"},{"type":"function","name":"storyNFTAddress","inputs":[],"outputs":[{"name":"","type":"address","internalType":"address"}],"stateMutability":"view"},{"type":"function","name":"transferOwnership","inputs":[{"name":"newOwner","type":"address","internalType":"address"}],"outputs":[],"stateMutability":"nonpayable"},{"type":"event","name":"LevelUp","inputs":[{"name":"user","type":"address","indexed":true,"internalType":"address"},{"name":"newLevel","type":"uint256","indexed":false,"internalType":"uint256"}],"anonymous":false},{"type":"event","name":"OwnershipTransferred","inputs":[{"name":"previousOwner","type":"address","indexed":true,"internalType":"address"},{"name":"newOwner","type":"address","indexed":true,"internalType":"address"}],"anonymous":false},{"type":"event","name":"XPAdded","inputs":[{"name":"user","type":"address","indexed":true,"internalType":"address"},{"name":"amount","type":"uint256","indexed":false,"internalType":"uint256"}],"anonymous":false},{"type":"event","name":"XPReduced","inputs":[{"name":"user","type":"address","indexed":true,"internalType":"address"},{"name":"amount","type":"uint256","indexed":false,"internalType":"uint256"}],"anonymous":false},{"type":"error","name":"InsufficientXP","inputs":[]},{"type":"error","name":"InvalidAddress","inputs":[]},{"type":"error","name":"OwnableInvalidOwner","inputs":[{"name":"owner","type":"address","internalType":"address"}]},{"type":"error","name":"OwnableUnauthorizedAccount","inputs":[{"name":"account","type":"address","internalType":"address"}]},{"type":"error","name":"UnauthorizedAccess","inputs":[]}],"bytecode":{"object":"0x608060405234801561000f575f5ffd5b50335f73ffffffffffffffffffffffffffffffffffffffff168173ffffffffffffffffffffffffffffffffffffffff1603610081575f6040517f1e4fbdf70000000000000000000000000000000000000000000000000000000081526004016100789190610196565b60405180910390fd5b6100908161009660201b60201c565b506101af565b5f5f5f9054906101000a900473ffffffffffffffffffffffffffffffffffffffff169050815f5f6101000a81548173ffffffffffffffffffffffffffffffffffffffff021916908373ffffffffffffffffffffffffffffffffffffffff1602179055508173ffffffffffffffffffffffffffffffffffffffff168173ffffffffffffffffffffffffffffffffffffffff167f8be0079c531659141344cd1fd0a4f28419497f9722a3daafe3b4186f6b6457e060405160405180910390a35050565b5f73ffffffffffffffffffffffffffffffffffffffff82169050919050565b5f61018082610157565b9050919050565b61019081610176565b82525050565b5f6020820190506101a95f830184610187565b92915050565b611049806101bc5f395ff3fe608060405234801561000f575f5ffd5b50600436106100cd575f3560e01c80638da5cb5b1161008a578063aac9d0bf11610064578063aac9d0bf146101fc578063aefe19d71461021a578063b4de9c2114610236578063f2fde38b14610254576100cd565b80638da5cb5b146101915780639c89a0e2146101af578063a40ade0a146101e0576100cd565b80635a45616d146100d1578063639487f4146100ed578063715018a61461011d5780637b1b064614610127578063817c89661461014557806383cc4fe114610175575b5f5ffd5b6100eb60048036038101906100e69190610de5565b610270565b005b61010760048036038101906101029190610de5565b610320565b6040516101149190610e28565b60405180910390f35b610125610368565b005b61012f61037b565b60405161013c9190610e28565b60405180910390f35b61015f600480360381019061015a9190610de5565b610380565b60405161016c9190610e28565b60405180910390f35b61018f600480360381019061018a9190610de5565b6103c9565b005b610199610479565b6040516101a69190610e50565b60405180910390f35b6101c960048036038101906101c49190610de5565b6104a0565b6040516101d7929190610e69565b60405180910390f35b6101fa60048036038101906101f59190610eba565b610513565b005b6102046108c5565b6040516102119190610e50565b60405180910390f35b610234600480360381019061022f9190610eba565b6108ea565b005b61023e610b8f565b60405161024b9190610e50565b60405180910390f35b61026e60048036038101906102699190610de5565b610bb4565b005b610278610c38565b5f73ffffffffffffffffffffffffffffffffffffffff168173ffffffffffffffffffffffffffffffffffffffff16036102dd576040517fe6c4247b00000000000000000000000000000000000000000000000000000000815260040160405180910390fd5b8060025f6101000a81548173ffffffffffffffffffffffffffffffffffffffff021916908373ffffffffffffffffffffffffffffffffffffffff16021790555050565b5f60015f8373ffffffffffffffffffffffffffffffffffffffff1673ffffffffffffffffffffffffffffffffffffffff1681526020019081526020015f205f01549050919050565b610370610c38565b6103795f610cbf565b565b606481565b5f60015f8373ffffffffffffffffffffffffffffffffffffffff1673ffffffffffffffffffffffffffffffffffffffff1681526020019081526020015f20600101549050919050565b6103d1610c38565b5f73ffffffffffffffffffffffffffffffffffffffff168173ffffffffffffffffffffffffffffffffffffffff1603610436576040517fe6c4247b00000000000000000000000000000000000000000000000000000000815260040160405180910390fd5b8060035f6101000a81548173ffffffffffffffffffffffffffffffffffffffff021916908373ffffffffffffffffffffffffffffffffffffffff16021790555050565b5f5f5f9054906101000a900473ffffffffffffffffffffffffffffffffffffffff16905090565b5f5f5f60015f8573ffffffffffffffffffffffffffffffffffffffff1673ffffffffffffffffffffffffffffffffffffffff1681526020019081526020015f206040518060400160405290815f82015481526020016001820154815250509050805f015181602001519250925050915091565b61051b610479565b73ffffffffffffffffffffffffffffffffffffffff163373ffffffffffffffffffffffffffffffffffffffff16141580156105a3575060025f9054906101000a900473ffffffffffffffffffffffffffffffffffffffff1673ffffffffffffffffffffffffffffffffffffffff163373ffffffffffffffffffffffffffffffffffffffff1614155b80156105fc575060035f9054906101000a900473ffffffffffffffffffffffffffffffffffffffff1673ffffffffffffffffffffffffffffffffffffffff163373ffffffffffffffffffffffffffffffffffffffff1614155b15610633576040517f344fd58600000000000000000000000000000000000000000000000000000000815260040160405180910390fd5b5f73ffffffffffffffffffffffffffffffffffffffff168273ffffffffffffffffffffffffffffffffffffffff1603610698576040517fe6c4247b00000000000000000000000000000000000000000000000000000000815260040160405180910390fd5b8060015f8473ffffffffffffffffffffffffffffffffffffffff1673ffffffffffffffffffffffffffffffffffffffff1681526020019081526020015f205f015f8282546106e69190610f25565b925050819055505b6001805f8473ffffffffffffffffffffffffffffffffffffffff1673ffffffffffffffffffffffffffffffffffffffff1681526020019081526020015f206001015461073a9190610f25565b60646107469190610f58565b60015f8473ffffffffffffffffffffffffffffffffffffffff1673ffffffffffffffffffffffffffffffffffffffff1681526020019081526020015f205f0154106108735760015f8373ffffffffffffffffffffffffffffffffffffffff1673ffffffffffffffffffffffffffffffffffffffff1681526020019081526020015f206001015f8154809291906107db90610f99565b91905055508173ffffffffffffffffffffffffffffffffffffffff167f91e51c29e7e87a74ad3b8ccba98538970f50a4309242735467f41e27c6b0fbac60015f8573ffffffffffffffffffffffffffffffffffffffff1673ffffffffffffffffffffffffffffffffffffffff1681526020019081526020015f20600101546040516108669190610e28565b60405180910390a26106ee565b8173ffffffffffffffffffffffffffffffffffffffff167f3b7cda1261f5c43e1022832b581103320671193233be8f67412e7566656b4b80826040516108b99190610e28565b60405180910390a25050565b60035f9054906101000a900473ffffffffffffffffffffffffffffffffffffffff1681565b6108f2610479565b73ffffffffffffffffffffffffffffffffffffffff163373ffffffffffffffffffffffffffffffffffffffff161415801561097a575060025f9054906101000a900473ffffffffffffffffffffffffffffffffffffffff1673ffffffffffffffffffffffffffffffffffffffff163373ffffffffffffffffffffffffffffffffffffffff1614155b80156109d3575060035f9054906101000a900473ffffffffffffffffffffffffffffffffffffffff1673ffffffffffffffffffffffffffffffffffffffff163373ffffffffffffffffffffffffffffffffffffffff1614155b15610a0a576040517f344fd58600000000000000000000000000000000000000000000000000000000815260040160405180910390fd5b5f73ffffffffffffffffffffffffffffffffffffffff168273ffffffffffffffffffffffffffffffffffffffff1603610a6f576040517fe6c4247b00000000000000000000000000000000000000000000000000000000815260040160405180910390fd5b8060015f8473ffffffffffffffffffffffffffffffffffffffff1673ffffffffffffffffffffffffffffffffffffffff1681526020019081526020015f205f01541015610ae8576040517f9219b00200000000000000000000000000000000000000000000000000000000815260040160405180910390fd5b8060015f8473ffffffffffffffffffffffffffffffffffffffff1673ffffffffffffffffffffffffffffffffffffffff1681526020019081526020015f205f015f828254610b369190610fe0565b925050819055508173ffffffffffffffffffffffffffffffffffffffff167fb8172738ea929c14c6447950799b7c0803e4e196fe8b1cc0ef45aaf2c294e03582604051610b839190610e28565b60405180910390a25050565b60025f9054906101000a900473ffffffffffffffffffffffffffffffffffffffff1681565b610bbc610c38565b5f73ffffffffffffffffffffffffffffffffffffffff168173ffffffffffffffffffffffffffffffffffffffff1603610c2c575f6040517f1e4fbdf7000000000000000000000000000000000000000000000000000000008152600401610c239190610e50565b60405180910390fd5b610c3581610cbf565b50565b610c40610d80565b73ffffffffffffffffffffffffffffffffffffffff16610c5e610479565b73ffffffffffffffffffffffffffffffffffffffff1614610cbd57610c81610d80565b6040517f118cdaa7000000000000000000000000000000000000000000000000000000008152600401610cb49190610e50565b60405180910390fd5b565b5f5f5f9054906101000a900473ffffffffffffffffffffffffffffffffffffffff169050815f5f6101000a81548173ffffffffffffffffffffffffffffffffffffffff021916908373ffffffffffffffffffffffffffffffffffffffff1602179055508173ffffffffffffffffffffffffffffffffffffffff168173ffffffffffffffffffffffffffffffffffffffff167f8be0079c531659141344cd1fd0a4f28419497f9722a3daafe3b4186f6b6457e060405160405180910390a35050565b5f33905090565b5f5ffd5b5f73ffffffffffffffffffffffffffffffffffffffff82169050919050565b5f610db482610d8b565b9050919050565b610dc481610daa565b8114610dce575f5ffd5b50565b5f81359050610ddf81610dbb565b92915050565b5f60208284031215610dfa57610df9610d87565b5b5f610e0784828501610dd1565b91505092915050565b5f819050919050565b610e2281610e10565b82525050565b5f602082019050610e3b5f830184610e19565b92915050565b610e4a81610daa565b82525050565b5f602082019050610e635f830184610e41565b92915050565b5f604082019050610e7c5f830185610e19565b610e896020830184610e19565b9392505050565b610e9981610e10565b8114610ea3575f5ffd5b50565b5f81359050610eb481610e90565b92915050565b5f5f60408385031215610ed057610ecf610d87565b5b5f610edd85828601610dd1565b9250506020610eee85828601610ea6565b9150509250929050565b7f4e487b71000000000000000000000000000000000000000000000000000000005f52601160045260245ffd5b5f610f2f82610e10565b9150610f3a83610e10565b9250828201905080821115610f5257610f51610ef8565b5b92915050565b5f610f6282610e10565b9150610f6d83610e10565b9250828202610f7b81610e10565b91508282048414831517610f9257610f91610ef8565b5b5092915050565b5f610fa382610e10565b91507fffffffffffffffffffffffffffffffffffffffffffffffffffffffffffffffff8203610fd557610fd4610ef8565b5b600182019050919050565b5f610fea82610e10565b9150610ff583610e10565b925082820390508181111561100d5761100c610ef8565b5b9291505056fea2646970667358221220acee405de35df6053a496766b802e9d820486e0189e7cf3f62f19b91874710c964736f6c634300081d0033","linkReferences":{}},"methodIdentifiers":{"XP_PER_LEVEL()":"7b1b0646","addXP(address,uint256)":"a40ade0a","getLevel(address)":"817c8966","getReputation(address)":"9c89a0e2","getXP(address)":"639487f4","owner()":"8da5cb5b","plagiarismCourt()":"aac9d0bf","reduceXP(address,uint256)":"aefe19d7","renounceOwnership()":"715018a6","setPlagiarismCourtAddress(address)":"83cc4fe1","setStoryNFTAddress(address)":"5a45616d","storyNFTAddress()":"b4de9c21","transferOwnership(address)":"f2fde38b"},"id":21}